{
  "_format": "hh-sol-artifact-1",
  "contractName": "ProposalVote",
  "sourceName": "contracts/ProposalVote.sol",
  "abi": [
    {
      "anonymous": false,
      "inputs": [
        {
          "indexed": true,
          "internalType": "string",
          "name": "name",
          "type": "string"
        },
        {
          "indexed": false,
          "internalType": "uint256",
          "name": "count",
          "type": "uint256"
        }
      ],
      "name": "ProposalActive",
      "type": "event"
    },
    {
      "anonymous": false,
      "inputs": [
        {
          "indexed": true,
          "internalType": "string",
          "name": "name",
          "type": "string"
        },
        {
          "indexed": false,
          "internalType": "uint256",
          "name": "count",
          "type": "uint256"
        }
      ],
      "name": "ProposalApproved",
      "type": "event"
    },
    {
      "anonymous": false,
      "inputs": [
        {
          "indexed": true,
          "internalType": "string",
          "name": "name",
          "type": "string"
        },
        {
          "indexed": false,
          "internalType": "uint16",
          "name": "quorum",
          "type": "uint16"
        }
      ],
      "name": "ProposalCreated",
      "type": "event"
    },
    {
      "inputs": [
        {
          "internalType": "string",
          "name": "_name",
          "type": "string"
        },
        {
          "internalType": "string",
          "name": "_desc",
          "type": "string"
        },
        {
          "internalType": "uint16",
          "name": "_quorum",
          "type": "uint16"
        }
      ],
      "name": "createProposal",
      "outputs": [],
      "stateMutability": "nonpayable",
      "type": "function"
    },
    {
      "inputs": [
        {
          "internalType": "uint8",
          "name": "_index",
          "type": "uint8"
        }
      ],
      "name": "getAProposal",
      "outputs": [
        {
          "internalType": "string",
          "name": "name_",
          "type": "string"
        },
        {
          "internalType": "string",
          "name": "desc_",
          "type": "string"
        },
        {
          "internalType": "uint16",
          "name": "count_",
          "type": "uint16"
        },
        {
          "internalType": "address[]",
          "name": "voters_",
          "type": "address[]"
        },
        {
          "internalType": "uint16",
          "name": "quorum_",
          "type": "uint16"
        },
        {
          "internalType": "enum ProposalVote.PropsStatus",
          "name": "status_",
          "type": "uint8"
        }
      ],
      "stateMutability": "view",
      "type": "function"
    },
    {
      "inputs": [],
      "name": "getAllproposals",
      "outputs": [
        {
          "components": [
            {
              "internalType": "string",
              "name": "name",
              "type": "string"
            },
            {
              "internalType": "string",
              "name": "description",
              "type": "string"
            },
            {
              "internalType": "uint16",
              "name": "voteCount",
              "type": "uint16"
            },
            {
              "internalType": "address[]",
              "name": "voters",
              "type": "address[]"
            },
            {
              "internalType": "uint16",
              "name": "quorum",
              "type": "uint16"
            },
            {
              "internalType": "enum ProposalVote.PropsStatus",
              "name": "status",
              "type": "uint8"
            }
          ],
          "internalType": "struct ProposalVote.Proposal[]",
          "name": "",
          "type": "tuple[]"
        }
      ],
      "stateMutability": "view",
      "type": "function"
    },
    {
      "inputs": [
        {
          "internalType": "uint256",
          "name": "",
          "type": "uint256"
        }
      ],
      "name": "proposals",
      "outputs": [
        {
          "internalType": "string",
          "name": "name",
          "type": "string"
        },
        {
          "internalType": "string",
          "name": "description",
          "type": "string"
        },
        {
          "internalType": "uint16",
          "name": "voteCount",
          "type": "uint16"
        },
        {
          "internalType": "uint16",
          "name": "quorum",
          "type": "uint16"
        },
        {
          "internalType": "enum ProposalVote.PropsStatus",
          "name": "status",
          "type": "uint8"
        }
      ],
      "stateMutability": "view",
      "type": "function"
    },
    {
      "inputs": [
        {
          "internalType": "uint8",
          "name": "_index",
          "type": "uint8"
        }
      ],
      "name": "voteOnProposal",
      "outputs": [],
      "stateMutability": "nonpayable",
      "type": "function"
    }
  ],
  "bytecode": "0x6080604052348015600f57600080fd5b50611f998061001f6000396000f3fe608060405234801561001057600080fd5b50600436106100575760003560e01c8063013cf08b1461005c5780630a2d25aa146100905780635521e3bf146100ae57806367d7a419146100ca578063bcf2e026146100ff575b600080fd5b61007660048036038101906100719190611033565b61011b565b604051610087959493929190611184565b60405180910390f35b61009861029a565b6040516100a59190611496565b60405180910390f35b6100c860048036038101906100c391906114f1565b610526565b005b6100e460048036038101906100df91906114f1565b61098c565b6040516100f69695949392919061158d565b60405180910390f35b61011960048036038101906101149190611764565b610ce4565b005b6001818154811061012b57600080fd5b906000526020600020906005020160009150905080600001805461014e9061181e565b80601f016020809104026020016040519081016040528092919081815260200182805461017a9061181e565b80156101c75780601f1061019c576101008083540402835291602001916101c7565b820191906000526020600020905b8154815290600101906020018083116101aa57829003601f168201915b5050505050908060010180546101dc9061181e565b80601f01602080910402602001604051908101604052809291908181526020018280546102089061181e565b80156102555780601f1061022a57610100808354040283529160200191610255565b820191906000526020600020905b81548152906001019060200180831161023857829003601f168201915b5050505050908060020160009054906101000a900461ffff16908060040160009054906101000a900461ffff16908060040160029054906101000a900460ff16905085565b60606001805480602002602001604051908101604052809291908181526020016000905b8282101561051d57838290600052602060002090600502016040518060c00160405290816000820180546102f19061181e565b80601f016020809104026020016040519081016040528092919081815260200182805461031d9061181e565b801561036a5780601f1061033f5761010080835404028352916020019161036a565b820191906000526020600020905b81548152906001019060200180831161034d57829003601f168201915b505050505081526020016001820180546103839061181e565b80601f01602080910402602001604051908101604052809291908181526020018280546103af9061181e565b80156103fc5780601f106103d1576101008083540402835291602001916103fc565b820191906000526020600020905b8154815290600101906020018083116103df57829003601f168201915b505050505081526020016002820160009054906101000a900461ffff1661ffff1661ffff168152602001600382018054806020026020016040519081016040528092919081815260200182805480156104aa57602002820191906000526020600020905b8160009054906101000a900473ffffffffffffffffffffffffffffffffffffffff1673ffffffffffffffffffffffffffffffffffffffff1681526020019060010190808311610460575b505050505081526020016004820160009054906101000a900461ffff1661ffff1661ffff1681526020016004820160029054906101000a900460ff1660038111156104f8576104f761110d565b5b600381111561050a5761050961110d565b5b81525050815260200190600101906102be565b50505050905090565b600073ffffffffffffffffffffffffffffffffffffffff163373ffffffffffffffffffffffffffffffffffffffff1603610595576040517f08c379a000000000000000000000000000000000000000000000000000000000815260040161058c9061189b565b60405180910390fd5b6001805490508160ff16106105df576040517f08c379a00000000000000000000000000000000000000000000000000000000081526004016105d690611907565b60405180910390fd5b6000803373ffffffffffffffffffffffffffffffffffffffff1673ffffffffffffffffffffffffffffffffffffffff16815260200190815260200160002060008260ff1660ff16815260200190815260200160002060009054906101000a900460ff1615610682576040517f08c379a000000000000000000000000000000000000000000000000000000000815260040161067990611973565b60405180910390fd5b600060018260ff168154811061069b5761069a611993565b5b906000526020600020906005020190506003808111156106be576106bd61110d565b5b8160040160029054906101000a900460ff1660038111156106e2576106e161110d565b5b03610722576040517f08c379a000000000000000000000000000000000000000000000000000000000815260040161071990611a34565b60405180910390fd5b60018160020160008282829054906101000a900461ffff166107449190611a83565b92506101000a81548161ffff021916908361ffff16021790555080600301339080600181540180825580915050600190039060005260206000200160009091909190916101000a81548173ffffffffffffffffffffffffffffffffffffffff021916908373ffffffffffffffffffffffffffffffffffffffff16021790555060028160040160026101000a81548160ff021916908360038111156107eb576107ea61110d565b5b021790555060016000803373ffffffffffffffffffffffffffffffffffffffff1673ffffffffffffffffffffffffffffffffffffffff16815260200190815260200160002060008460ff1660ff16815260200190815260200160002060006101000a81548160ff0219169083151502179055508060040160009054906101000a900461ffff1661ffff168160020160009054906101000a900461ffff1661ffff16106109255760038160040160026101000a81548160ff021916908360038111156108b9576108b861110d565b5b0217905550806000016040516108cf9190611b5c565b60405180910390207f57ee8a914ff41f9df2d7f3b88352952ab8f702bc31ab97fa3240d82460a9f3548260020160009054906101000a900461ffff166040516109189190611bae565b60405180910390a2610988565b806000016040516109369190611b5c565b60405180910390207f21b4246139e955ef22ce210d80dafa91cc534302377e7dd1e96aae64694a4a9f8260020160009054906101000a900461ffff1660405161097f9190611bae565b60405180910390a25b5050565b60608060006060600080600073ffffffffffffffffffffffffffffffffffffffff163373ffffffffffffffffffffffffffffffffffffffff1603610a05576040517f08c379a00000000000000000000000000000000000000000000000000000000081526004016109fc9061189b565b60405180910390fd5b6001805490508760ff1610610a4f576040517f08c379a0000000000000000000000000000000000000000000000000000000008152600401610a4690611c15565b60405180910390fd5b600060018860ff1681548110610a6857610a67611993565b5b90600052602060002090600502016040518060c0016040529081600082018054610a919061181e565b80601f0160208091040260200160405190810160405280929190818152602001828054610abd9061181e565b8015610b0a5780601f10610adf57610100808354040283529160200191610b0a565b820191906000526020600020905b815481529060010190602001808311610aed57829003601f168201915b50505050508152602001600182018054610b239061181e565b80601f0160208091040260200160405190810160405280929190818152602001828054610b4f9061181e565b8015610b9c5780601f10610b7157610100808354040283529160200191610b9c565b820191906000526020600020905b815481529060010190602001808311610b7f57829003601f168201915b505050505081526020016002820160009054906101000a900461ffff1661ffff1661ffff16815260200160038201805480602002602001604051908101604052809291908181526020018280548015610c4a57602002820191906000526020600020905b8160009054906101000a900473ffffffffffffffffffffffffffffffffffffffff1673ffffffffffffffffffffffffffffffffffffffff1681526020019060010190808311610c00575b505050505081526020016004820160009054906101000a900461ffff1661ffff1661ffff1681526020016004820160029054906101000a900460ff166003811115610c9857610c9761110d565b5b6003811115610caa57610ca961110d565b5b81525050905080600001519650806020015195508060400151945080606001519350806080015192508060a0015191505091939550919395565b600073ffffffffffffffffffffffffffffffffffffffff163373ffffffffffffffffffffffffffffffffffffffff1603610d53576040517f08c379a0000000000000000000000000000000000000000000000000000000008152600401610d4a90611c81565b60405180910390fd5b610d5b610ef2565b83816000018190525082816020018190525081816080019061ffff16908161ffff168152505060018160a001906003811115610d9a57610d9961110d565b5b90816003811115610dae57610dad61110d565b5b8152505060018190806001815401808255809150506001900390600052602060002090600502016000909190919091506000820151816000019081610df39190611e2e565b506020820151816001019081610e099190611e2e565b5060408201518160020160006101000a81548161ffff021916908361ffff1602179055506060820151816003019080519060200190610e49929190610f42565b5060808201518160040160006101000a81548161ffff021916908361ffff16021790555060a08201518160040160026101000a81548160ff02191690836003811115610e9857610e9761110d565b5b0217905550505083604051610ead9190611f31565b60405180910390207fd676bd5a867d12796d6ef62a604d07c83bdce30aaf9471431d7772e1ba09e22283604051610ee49190611f48565b60405180910390a250505050565b6040518060c001604052806060815260200160608152602001600061ffff16815260200160608152602001600061ffff16815260200160006003811115610f3c57610f3b61110d565b5b81525090565b828054828255906000526020600020908101928215610fbb579160200282015b82811115610fba5782518260006101000a81548173ffffffffffffffffffffffffffffffffffffffff021916908373ffffffffffffffffffffffffffffffffffffffff16021790555091602001919060010190610f62565b5b509050610fc89190610fcc565b5090565b5b80821115610fe5576000816000905550600101610fcd565b5090565b6000604051905090565b600080fd5b600080fd5b6000819050919050565b61101081610ffd565b811461101b57600080fd5b50565b60008135905061102d81611007565b92915050565b60006020828403121561104957611048610ff3565b5b60006110578482850161101e565b91505092915050565b600081519050919050565b600082825260208201905092915050565b60005b8381101561109a57808201518184015260208101905061107f565b60008484015250505050565b6000601f19601f8301169050919050565b60006110c282611060565b6110cc818561106b565b93506110dc81856020860161107c565b6110e5816110a6565b840191505092915050565b600061ffff82169050919050565b611107816110f0565b82525050565b7f4e487b7100000000000000000000000000000000000000000000000000000000600052602160045260246000fd5b6004811061114d5761114c61110d565b5b50565b600081905061115e8261113c565b919050565b600061116e82611150565b9050919050565b61117e81611163565b82525050565b600060a082019050818103600083015261119e81886110b7565b905081810360208301526111b281876110b7565b90506111c160408301866110fe565b6111ce60608301856110fe565b6111db6080830184611175565b9695505050505050565b600081519050919050565b600082825260208201905092915050565b6000819050602082019050919050565b600082825260208201905092915050565b600061122d82611060565b6112378185611211565b935061124781856020860161107c565b611250816110a6565b840191505092915050565b611264816110f0565b82525050565b600081519050919050565b600082825260208201905092915050565b6000819050602082019050919050565b600073ffffffffffffffffffffffffffffffffffffffff82169050919050565b60006112c182611296565b9050919050565b6112d1816112b6565b82525050565b60006112e383836112c8565b60208301905092915050565b6000602082019050919050565b60006113078261126a565b6113118185611275565b935061131c83611286565b8060005b8381101561134d57815161133488826112d7565b975061133f836112ef565b925050600181019050611320565b5085935050505092915050565b61136381611163565b82525050565b600060c08301600083015184820360008601526113868282611222565b915050602083015184820360208601526113a08282611222565b91505060408301516113b5604086018261125b565b50606083015184820360608601526113cd82826112fc565b91505060808301516113e2608086018261125b565b5060a08301516113f560a086018261135a565b508091505092915050565b600061140c8383611369565b905092915050565b6000602082019050919050565b600061142c826111e5565b61143681856111f0565b93508360208202850161144885611201565b8060005b8581101561148457848403895281516114658582611400565b945061147083611414565b925060208a0199505060018101905061144c565b50829750879550505050505092915050565b600060208201905081810360008301526114b08184611421565b905092915050565b600060ff82169050919050565b6114ce816114b8565b81146114d957600080fd5b50565b6000813590506114eb816114c5565b92915050565b60006020828403121561150757611506610ff3565b5b6000611515848285016114dc565b91505092915050565b600082825260208201905092915050565b600061153a8261126a565b611544818561151e565b935061154f83611286565b8060005b8381101561158057815161156788826112d7565b9750611572836112ef565b925050600181019050611553565b5085935050505092915050565b600060c08201905081810360008301526115a781896110b7565b905081810360208301526115bb81886110b7565b90506115ca60408301876110fe565b81810360608301526115dc818661152f565b90506115eb60808301856110fe565b6115f860a0830184611175565b979650505050505050565b600080fd5b600080fd5b7f4e487b7100000000000000000000000000000000000000000000000000000000600052604160045260246000fd5b611645826110a6565b810181811067ffffffffffffffff821117156116645761166361160d565b5b80604052505050565b6000611677610fe9565b9050611683828261163c565b919050565b600067ffffffffffffffff8211156116a3576116a261160d565b5b6116ac826110a6565b9050602081019050919050565b82818337600083830152505050565b60006116db6116d684611688565b61166d565b9050828152602081018484840111156116f7576116f6611608565b5b6117028482856116b9565b509392505050565b600082601f83011261171f5761171e611603565b5b813561172f8482602086016116c8565b91505092915050565b611741816110f0565b811461174c57600080fd5b50565b60008135905061175e81611738565b92915050565b60008060006060848603121561177d5761177c610ff3565b5b600084013567ffffffffffffffff81111561179b5761179a610ff8565b5b6117a78682870161170a565b935050602084013567ffffffffffffffff8111156117c8576117c7610ff8565b5b6117d48682870161170a565b92505060406117e58682870161174f565b9150509250925092565b7f4e487b7100000000000000000000000000000000000000000000000000000000600052602260045260246000fd5b6000600282049050600182168061183657607f821691505b602082108103611849576118486117ef565b5b50919050565b7f5a65726f206e6f7420616c6c6f77656400000000000000000000000000000000600082015250565b600061188560108361106b565b91506118908261184f565b602082019050919050565b600060208201905081810360008301526118b481611878565b9050919050565b7f696e646578206973206f75742d6f662d626f756e640000000000000000000000600082015250565b60006118f160158361106b565b91506118fc826118bb565b602082019050919050565b60006020820190508181036000830152611920816118e4565b9050919050565b7f596f7527766520766f74656420616c7265616479000000000000000000000000600082015250565b600061195d60148361106b565b915061196882611927565b602082019050919050565b6000602082019050818103600083015261198c81611950565b9050919050565b7f4e487b7100000000000000000000000000000000000000000000000000000000600052603260045260246000fd5b7f546869732070726f706f73616c20686173206265656e2061636365707465642060008201527f616c726561647900000000000000000000000000000000000000000000000000602082015250565b6000611a1e60278361106b565b9150611a29826119c2565b604082019050919050565b60006020820190508181036000830152611a4d81611a11565b9050919050565b7f4e487b7100000000000000000000000000000000000000000000000000000000600052601160045260246000fd5b6000611a8e826110f0565b9150611a99836110f0565b9250828201905061ffff811115611ab357611ab2611a54565b5b92915050565b600081905092915050565b60008190508160005260206000209050919050565b60008154611ae68161181e565b611af08186611ab9565b94506001821660008114611b0b5760018114611b2057611b53565b60ff1983168652811515820286019350611b53565b611b2985611ac4565b60005b83811015611b4b57815481890152600182019150602081019050611b2c565b838801955050505b50505092915050565b6000611b688284611ad9565b915081905092915050565b6000819050919050565b6000611b98611b93611b8e846110f0565b611b73565b610ffd565b9050919050565b611ba881611b7d565b82525050565b6000602082019050611bc36000830184611b9f565b92915050565b7f496e646578206973206f75742d6f662d626f756e640000000000000000000000600082015250565b6000611bff60158361106b565b9150611c0a82611bc9565b602082019050919050565b60006020820190508181036000830152611c2e81611bf2565b9050919050565b7f5a65726f2061646472657373206e6f7420616c6c6f7765640000000000000000600082015250565b6000611c6b60188361106b565b9150611c7682611c35565b602082019050919050565b60006020820190508181036000830152611c9a81611c5e565b9050919050565b60006020601f8301049050919050565b600082821b905092915050565b600060088302611cee7fffffffffffffffffffffffffffffffffffffffffffffffffffffffffffffffff82611cb1565b611cf88683611cb1565b95508019841693508086168417925050509392505050565b6000611d2b611d26611d2184610ffd565b611b73565b610ffd565b9050919050565b6000819050919050565b611d4583611d10565b611d59611d5182611d32565b848454611cbe565b825550505050565b600090565b611d6e611d61565b611d79818484611d3c565b505050565b5b81811015611d9d57611d92600082611d66565b600181019050611d7f565b5050565b601f821115611de257611db381611ac4565b611dbc84611ca1565b81016020851015611dcb578190505b611ddf611dd785611ca1565b830182611d7e565b50505b505050565b600082821c905092915050565b6000611e0560001984600802611de7565b1980831691505092915050565b6000611e1e8383611df4565b9150826002028217905092915050565b611e3782611060565b67ffffffffffffffff811115611e5057611e4f61160d565b5b611e5a825461181e565b611e65828285611da1565b600060209050601f831160018114611e985760008415611e86578287015190505b611e908582611e12565b865550611ef8565b601f198416611ea686611ac4565b60005b82811015611ece57848901518255600182019150602085019450602081019050611ea9565b86831015611eeb5784890151611ee7601f891682611df4565b8355505b6001600288020188555050505b505050505050565b6000611f0b82611060565b611f158185611ab9565b9350611f2581856020860161107c565b80840191505092915050565b6000611f3d8284611f00565b915081905092915050565b6000602082019050611f5d60008301846110fe565b9291505056fea26469706673582212206cb24276c6a2c3086fc92262e808a63dcc7f34d8ac8200bc4bb53fb4853e557764736f6c634300081b0033",
  "linkReferences": {},
  "deployedLinkReferences": {}
}